{
  "_format": "hh-sol-artifact-1",
  "contractName": "Sieze",
  "sourceName": "contracts/Sieze.sol",
  "abi": [
    {
      "constant": false,
      "inputs": [],
      "name": "withdraw",
      "outputs": [
        {
          "name": "",
          "type": "bytes"
        }
      ],
      "payable": true,
      "stateMutability": "payable",
      "type": "function"
    },
    {
      "constant": true,
      "inputs": [],
      "name": "res",
      "outputs": [
        {
          "name": "",
          "type": "string"
        }
      ],
      "payable": false,
      "stateMutability": "view",
      "type": "function"
    },
    {
      "constant": false,
      "inputs": [],
      "name": "unlock",
      "outputs": [],
      "payable": true,
      "stateMutability": "payable",
      "type": "function"
    },
    {
      "constant": true,
      "inputs": [],
      "name": "locked",
      "outputs": [
        {
          "name": "",
          "type": "bool"
        }
      ],
      "payable": false,
      "stateMutability": "view",
      "type": "function"
    },
    {
      "inputs": [
        {
          "name": "_flag",
          "type": "string"
        }
      ],
      "payable": true,
      "stateMutability": "payable",
      "type": "constructor"
    }
  ],
  "bytecode": "0x60806040526040516106713803806106718339810180604052810190808051820192919050505060016000806101000a81548160ff02191690831515021790555080600190805190602001906100569291906100a9565b506040805190810160405280600481526020017f6e6f6e6500000000000000000000000000000000000000000000000000000000815250600290805190602001906100a29291906100a9565b505061014e565b828054600181600116156101000203166002900490600052602060002090601f016020900481019282601f106100ea57805160ff1916838001178555610118565b82800160010185558215610118579182015b828111156101175782518255916020019190600101906100fc565b5b5090506101259190610129565b5090565b61014b91905b8082111561014757600081600090555060010161012f565b5090565b90565b6105148061015d6000396000f300608060405260043610610062576000357c0100000000000000000000000000000000000000000000000000000000900463ffffffff1680633ccfd60b146100675780636f10e285146100ea578063a69df4b51461017a578063cf30901214610184575b600080fd5b61006f6101b3565b6040518080602001828103825283818151815260200191508051906020019080838360005b838110156100af578082015181840152602081019050610094565b50505050905090810190601f1680156100dc5780820380516001836020036101000a031916815260200191505b509250505060405180910390f35b3480156100f657600080fd5b506100ff61035b565b6040518080602001828103825283818151815260200191508051906020019080838360005b8381101561013f578082015181840152602081019050610124565b50505050905090810190601f16801561016c5780820380516001836020036101000a031916815260200191505b509250505060405180910390f35b6101826103f9565b005b34801561019057600080fd5b5061019961042a565b604051808215151515815260200191505060405180910390f35b60606000809054906101000a900460ff16151515610239576040517f08c379a00000000000000000000000000000000000000000000000000000000081526004018080602001828103825260128152602001807f436f6e7472616374206973206c6f636b6564000000000000000000000000000081525060200191505060405180910390fd5b3373ffffffffffffffffffffffffffffffffffffffff163073ffffffffffffffffffffffffffffffffffffffff163160405160006040518083038185875af1925050505060016000806101000a81548160ff0219169083151502179055506001600290805460018160011615610100020316600290046102ba92919061043c565b5060018054600181600116156101000203166002900480601f0160208091040260200160405190810160405280929190818152602001828054600181600116156101000203166002900480156103515780601f1061032657610100808354040283529160200191610351565b820191906000526020600020905b81548152906001019060200180831161033457829003601f168201915b5050505050905090565b60028054600181600116156101000203166002900480601f0160208091040260200160405190810160405280929190818152602001828054600181600116156101000203166002900480156103f15780601f106103c6576101008083540402835291602001916103f1565b820191906000526020600020905b8154815290600101906020018083116103d457829003601f168201915b505050505081565b6611c37937e080003414151561040e57600080fd5b60008060006101000a81548160ff021916908315150217905550565b6000809054906101000a900460ff1681565b828054600181600116156101000203166002900490600052602060002090601f016020900481019282601f1061047557805485556104b2565b828001600101855582156104b257600052602060002091601f016020900482015b828111156104b1578254825591600101919060010190610496565b5b5090506104bf91906104c3565b5090565b6104e591905b808211156104e15760008160009055506001016104c9565b5090565b905600a165627a7a72305820b4b2143866c7026f5f14db91dfadf75d2b4ffeb8d1a97118c89a8b5d24fc6b2f0029",
  "linkReferences": {},
  "deployedLinkReferences": {}
}